:020000040800F2
:10000000B83200209D010008D76B00084B5900084A
:10001000D56B000863290008257C0008000000005B
:100020000000000000000000000000000D7000084B
:100030006D2B000800000000596D00080F700008CB
:10004000B7010008B7010008B7010008B7010008B0
:10005000B7010008B7010008B7010008B7010008A0
:10006000B7010008B7010008B7010008B701000890
:10007000B7010008B7010008B7010008B701000880
:10008000B7010008B7010008F50E0008B701000825
:10009000B7010008B7010008B7010008A12B00084C
:1000A000B7010008B7010008B7010008B701000850
:1000B000B7010008B7010008B7010008B701000840
:1000C000B7010008B7010008B7010008B701000830
:1000D000B70100080D7C0008B7010008197C000872
:1000E000B7010008B7010008B7010008B701000810
:1000F000B7010008B7010008B7010008B701000800
:10010000B7010008B7010008B7010008B7010008EF
:10011000B7010008B7010008B7010008B7010008DF
:10012000B7010008B7010008B7010008B7010008CF
:10013000B7010008B7010008B7010008B7010008BF
:10014000B7010008B7010008B7010008B7010008AF
:10015000B7010008B7010008B7010008B70100089F
:10016000B7010008B7010008B7010008B70100088F
:10017000B7010008B7010008B7010008000000003F
:10018000B7010008B7010008DFF80CD000F056FCFA
:1001900000480047DDA10008B8320020064880472B
:1001A00006480047FEE7FEE7FEE7FEE7FEE7FEE75C
:1001B000FEE7FEE7FEE7FEE7A17000088901000800
:1001C0002DE9F05F0546002092469B46884606468C
:1001D000814640241BE0284641464746224600F01F
:1001E00010FB53465A46C01A914110D31146184687
:1001F000224600F0F7FA2D1A67EB01084F46224617
:100200000120002100F0EEFA17EB00094E41201EFC
:10021000A4F10104DFDC484631462A46434600F09B
:1002200000B830BCBDE8C09F2DE9F0410024061B9A
:10023000254671F1000605DA01240027D0EB0700FE
:1002400067EB0101161E73F1000605DA0027D2EBF9
:100250000702012567EB0303FFF7B2FF86460E4650
:1002600017469C46AC4204D00025D0EB050E65EB4A
:10027000010624B10020D2EB000760EB030C7046AE
:1002800031463A466346BDE8F08110B5431A9342C1
:1002900009D28318881803E010F8011D03F8011D26
:1002A000521EF9D210BD40EA01039B0703D009E0BA
:1002B00008C9121F08C0042AFAD203E011F8013B52
:1002C00000F8013B521EF9D210BDD2B201E000F895
:1002D000012B491EFBD270470022F6E710B51346EA
:1002E0000A4604461946FFF7F0FF204610BD10B538
:1002F000044604E00B7800F8013B03B1491C521E90
:10030000F8D2204610BDCAB2401E10F8011F8A4222
:1003100002D00029F9D100207047421C10F8011BBF
:100320000029FBD1801A704710B5002200E0521C52
:10033000835C8C5CA34201D1002BF8D1D8B2E1B22E
:10034000401A10BD30B504460020034600E05B1C97
:10035000934203D2E05CCD5C401BF8D030BD034635
:1003600011F8012B00F8012B002AF9D1184670472B
:1003700030B505460020034600E05B1C934205D2E1
:10038000EC5CC85C201A01D1002CF6D130BD000015
:1003900070B50F4D00B92868002412E00A4602E04B
:1003A0009E4203D0521C1378002BF9D1DAB22243BB
:1003B00005D02BB124B1002100F8011B04E0044654
:1003C000401C0678002EE9D12860204670BD000050
:1003D000000100202DE9FE4F804681EA0300C00F96
:1003E0000C46009021F0004123F00045B8EB0200DC
:1003F000A94105D24046214690461C460B4602467E
:1004000023F00040104347D0270DC7F30A00C3F381
:100410000A510290401A019040286BDAC3F313008E
:1004200040F4801B0098924620B10023D2EB030ACF
:1004300063EB0B0B01985946C0F14002504600F0A7
:10044000D1F906460D4650465946019A00F0E9F9A1
:1004500010EB08006141002487EA115284EAE77337
:100460001A4340D0009A62B3019A012A4FEA075218
:1004700015DC001B61EB02014FF0004202EA07525B
:10048000CDE90042001C41F5801132462B4600F0B8
:100490006FFA03B000F045B840462146F9E7001B6B
:1004A00061EB0201001C41F5801300185B4120182C
:1004B000A2F5001747EB030140EAD570B6196D416C
:1004C00011E06D084FEA360645EAC0754FEA07525B
:1004D000001B61EB0201001C41F5801149084FEA45
:1004E00030000019514132462B4603B000F01CB8D1
:1004F00000F02FBA0098012240000023D0EB020246
:1005000063EBE073009821464FEAE074B8EB00001B
:1005100061EB0401E9E783F000435BE781F0004110
:1005200058E730BCBDE8C08F30BCBDE8C04FFFF716
:10053000DFBF2DE9FE4F81EA030404F0004421F0FF
:10054000004100944FF0000B23F0004350EA0104F7
:100550005ED052EA03045BD0C3F30A54C1F30A55D8
:100560002C44A4F2F3340194A0FB0254C1F3130110
:1005700041F48011C3F3130343F4801301FB0244DD
:1005800000FB034E840A970A44EA815447EA8357E2
:10059000A4FB076802958D0A05FB07854FEA932C9B
:1005A00004FB0C542705029D4FEA065847EA16370C
:1005B000B5EB08056EEB070C870E920E47EA811724
:1005C00042EA8312A7FB0201B6EB0B0164EB0004C5
:1005D0002B0D43EA0C335E1844EB1C50DA465146AF
:1005E000E7FB0201C5F313044FEA0B3343EA14534C
:1005F0004FEA0432019C43EA0603A4F10C0402947E
:10060000009CCDE900B400F0B3F903B000F003B8EA
:1006100000200146F9E730BCBDE8C08F2DE9F04D60
:1006200081EA030404F0004B21F0004514464FF02A
:10063000000A23F0004150EA050220D054EA0102EA
:100640001DD0C5F30A570246C5F31303C1F31300C7
:10065000C1F30A5640F4801543F48013A7EB060853
:10066000101BD64608F2FD3873EB050002D308F1E3
:10067000010801E092185B41B8F1000F03DA002095
:100680000146BDE8F08D00204FF4801106468446F7
:100690000EE0171B73EB050705D3121B63EB050375
:1006A00006434CEA010C49084FEA300092185B41BE
:1006B00050EA0107EDD152EA030012D082EA0400A9
:1006C00083EA0501084305D0101BAB4106D2012285
:1006D000002306E000224FF0004302E06FF0010229
:1006E00053101AEB06004CEB085110EB0A0041EBDB
:1006F0000B01BDE8F04D00F02CB900F0004230F0E5
:1007000000400AD0C10D01F56071C0F3160042EA45
:100710000151C2084007114370470020014670474D
:1007200030B5041E71F1000404DB4FF00044404278
:1007300064EB0101141E73F1000405DB1C464FF04D
:100740000043524263EB04038B4208BF824230BD38
:1007500030B5041E71F1000404DB4FF00044404248
:1007600064EB0101141E73F1000405DB1C464FF01D
:100770000043524263EB0403994208BF904230BDEC
:1007800001F0004330B421F0004150EA010206D0EC
:100790000A0DA2F56072C1F31301002A02DC30BC1D
:1007A00000207047440F44EAC104C100E01830BC87
:1007B00000EBC25000F096B830B50B460146002061
:1007C0002022012409E021FA02F59D4205D303FA13
:1007D00002F5491B04FA02F52844151EA2F1010294
:1007E000F1DC30BD202A04DB203A00FA02F10020BF
:1007F00070479140C2F1200320FA03F3194390405F
:100800007047202A04DB203A21FA02F000217047C9
:1008100021FA02F3D040C2F1200291400843194668
:100820007047202A06DBCB17203A41FA02F043EA50
:10083000E07306E041FA02F3D040C2F12002914099
:1008400008431946704700000FB4002300B589B073
:100850000CA900910B996FF00042CB601E4B0693E0
:100860001E4B07930423CDE901321D4A089202462C
:100870006B46002000F08EF909B05DF814FB70B5EE
:1008800086B006464FF0FF300091CDE9010100200F
:1008900015460C4604903246694604A8FFF7D4FF7B
:1008A00002460498211825B108B1084600E0204608
:1008B0002860049800280DD0002A02DD00988842A4
:1008C00008D0081B0094CDE901043246694604A80B
:1008D000FFF7BAFF06B070BDD30D0008F10D000898
:1008E000610A00080029A8BF7047401C490008BFE2
:1008F00020F00100704710B4B0FA80FC00FA0CF050
:1009000050EA010404BF10BC704749B1CCF1200487
:1009100021FA04F411FA0CF118BF01212143084314
:10092000A3EB0C01CB1D4FEA00614FEA102042BF40
:10093000002010BC704700EBC35010440029A4BF36
:1009400010BC7047401C490008BF20F0010010BCDB
:10095000704710B5141E73F1000408DA401C41F111
:10096000000192185B411A4301D120F0010010BD33
:100970002DE9F04D92469B4611B1B1FA81F202E0A9
:10098000B0FA80F220329046FFF72CFF04460F4663
:1009900040EA0A0041EA0B0153465A46084313D085
:1009A000114653EA010019D0C8F140025046FFF742
:1009B00028FF05460E46504659464246FFF712FFAD
:1009C000084305D0012004E020463946BDE8F08DFB
:1009D0000020054346EAE0762C4337430A98630536
:1009E000E40AA0EB08000022FD0A44EA47540A305A
:1009F00002D500200146E9E7010510196941DDE94A
:100A0000084500196941BDE8F04DA2E7C1F30A525B
:100A1000C1F3130140F2FF3341F480119A4202DA2C
:100A200000200146704740F233439A42A2F233421B
:100A300002DC5242FFF7E5BEFFF7D4BE064C074D7D
:100A400006E0E06840F0010394E80700984710349E
:100A5000AC42F6D3FFF79CFB40D0000860D0000802
:100A6000C0B24FF4F05100F025BA00002DE9FF4F5D
:100A7000087883B09946FF2805D0491C2D2804D05A
:100A80000024002008E000200BE00124F9E700EB3F
:100A9000800003EB4000491C0B78FF2BF7D104B119
:100AA000404200230293147819461D462D2C01D094
:100AB0002B2C04D1521C2D2C13D000240294AA46B6
:100AC0001478FF2C0FD00A25A3FB057801FB0581C4
:100AD0004FF0000C03FB0C11521CE3194AEB01010F
:100AE000EEE70124EAE7814453EA010002D019F558
:100AF000C87F06DA03980021C0E9001107B000F0B2
:100B000065B90025AE4E2F46DFF8B882184600F0D2
:100B1000E5F9CDE90001B9F1000002DAC9F10004FC
:100B200000E004460023A74A1AEB030B42EB045AE9
:100B300012E0E00707D02A46334638464146FFF721
:100B4000F8FC074688462A46334610461946FFF702
:100B5000F0FC05460E466410002CEAD1DDE90001E8
:100B6000B9F1000F5A46534606DAFFF757FD3A46E9
:100B70004346FFF753FD05E0FFF7DBFC3A464346EB
:100B8000FFF7D7FC029A0AB181F00041039AC2E94B
:100B90000001B3E72DE9FF4F1F468DB0D7E90146AD
:100BA0004FF0FF382E2045464FF000090B90B969F1
:100BB0006D1C0E988847396A824688470028F6D10E
:100BC000BAF1FF3F0AD024F4D064002E11DDBAF14F
:100BD0002B0F08D0BAF12D0F0BD102E0404611B017
:100BE0008DE744F48064B9696D1C0E98884782468D
:100BF000761E6946600501D52D2000E02B208DF87A
:100C0000000001F1010B0DF1200809E0B9696D1C2C
:100C10000E98884782460F9844F40074761E05604B
:100C2000002E02DDBAF1300FF0D00B998A453ED18B
:100C300044F0800406E00F99681CA9F1010944F40E
:100C400000740860B9696D1C761E0E98884782464C
:100C50003028F0D02BE00B998A4505D1200603D42B
:100C600044F08004761E18E0504607F05CFF08B39D
:100C70000DF11301761E44F400748B4508D2AAF1DD
:100C800030000BF8010B200607D5A9F1010003E0A5
:100C9000200602D409F101008146A00502D50F9972
:100CA000681C0860B9696D1C0E9888478246002E42
:100CB000D1DC53E0002E51DDBAF1650F02D0BAF15C
:100CC000450F4BD1A00549D5B9696D1C24F440747A
:100CD000761E0E9888478246002E0CDD2B2804D005
:100CE000BAF12D0F07D144F48074B9696D1C0E98C8
:100CF00088478246761EE00501D52D2100E02B2194
:100D000008F8011BCDF82C8021E00DF12901761E99
:100D100044F4007488450CD2AAF1300010F0FF00B2
:100D200088F8000002D10B99884509D908F101081B
:100D300006E0E00501D5244801E042F20F7081464B
:100D4000B9696D1C0E98884782460F980560002E81
:100D500004DD504607F0E7FE0028D6D1F9690E9869
:100D60008847FF208BF8000088F8000000200690DC
:100D700007904B466A4608A906A8FFF777FEA0052C
:100D800002D46FF001002AE714F0240F0AD0E00724
:100D900014D1DDE906123868031D3B600068C0E924
:100DA00000120BE0DDE90601FFF7EAFC0146E0076F
:100DB00004D13868021D3A600068016028460EE7D9
:100DC000000014400000F03FF1D8FFFF30BCBDE848
:100DD000C08F426842B1016811F8013B23B1521E35
:100DE000C0E90012184670470121C160881E704793
:100DF00042685AB1C368016843B983688B4205D021
:100E0000491E521CC0E90012002070474FF0FF300D
:100E100070472DE9F04D00231A461B1A8A4103DB67
:100E200000200146BDE8F08DC1F30A52C1F3130161
:100E300041F480154FF0000BD10702D100186D412D
:100E4000521E0027044640F2FF11384601EB620AA9
:100E50003E468046024600204FF48011FFF7D1FC49
:100E6000C2197141BB1846EB0100B4EB030C75EBE2
:100E7000000C04D3E41A65EB000517460E4624194E
:100E800008F101006D4180463428E3DDF91946EB95
:100E90000600091BA84103D24FF0FF32134601E0C0
:100EA000002213461BEB070046EB0A51BDE8F04D4C
:100EB000FFF74FBD7F2801D9002208E0064A02EB68
:100EC0005002C007127800D1120902F00F0201206F
:100ED0009040084070470000C8CE00080EB540F2B0
:100EE000334202920022CDE900221346FFF740FD73
:100EF00003B000BD014802F0DFB800005404002038
:100F00002DE9F041044600270D46006805F0BAFAC5
:100F10000646206805F0B2FA30435DD02068C1680B
:100F20002E4E890105D5617E012902D1217E01293C
:100F30000BD0022D1DD0206805F0A4FAB8B12068AE
:100F40008168C1F3400169B111E00125244902E043
:100F50008F4232D27F1C0268D2435206F8D440211D
:100F60000160E8E78168314041F010018160012DA6
:100F700011D0206805F082FA48B120688168C1F379
:100F8000400121B98168314041F020018160022D8A
:100F900008D0032D04D0042502F0A8FD064617E072
:100FA0000C25F9E70825F7E702F0A0FD801B0528CE
:100FB0000ED92068806828420AD0606D40F0100089
:100FC0006065A06D40F00100A0650120BDE8F081E2
:100FD000206880682842E7D10020F7E7C0FFFF7F44
:100FE000000040A370B50446006881688268C1F3C0
:100FF000400112F0010F28D039BB816801F00D01CA
:10100000012914D18168124A1140891C816021682C
:101010000320086002F06AFD054612E002F066FD5A
:10102000401B02280DD920688068C00709D0606D78
:1010300040F010006065A06D40F00100A065012047
:1010400070BD20688068C007E8D1002070BD000036
:10105000C0FFFF7FF8B5044600200090206881683B
:1010600011F0010F41D18168214A11422ED18168CE
:10107000D5432940491C81601E48806800F0E0701B
:1010800000020DD51C481D490068B0FBF1F0401C62
:1010900000EB4000800000E0401E00900028FBD1E3
:1010A00002F024FD06461BE0816811F0010F03D118
:1010B00081682940491C816002F018FD801B0228CC
:1010C0000ED920680068C043C00709D0606D40F0A9
:1010D00010006065A06D40F00100A0650120F8BD22
:1010E00020680168C943C907DED10020F8BD0000AF
:1010F0003F000080000304507C000020400D0300EE
:101100002DE9F0411A4C0546F9B1E07C4FF4FA673D
:1011100005F1640678B9206D40F2DC51281A884246
:1011200024D30620E0743846256500F04DFAE664C5
:10113000E07C00281AD0E06C854217D3A07C38B13F
:1011400000F06AFA5035E56406E00020E07409E03A
:10115000384600F039FAE664E07C401E10F0FF00EB
:10116000E07403D1BDE8F04100F056BABDE8F0816B
:10117000000000202DE9F04FDFF85CA1A1B09AF843
:10118000020030B19AF801109AF8000000F054FA09
:1011900000E052A083460FF2441800204FA58DF8BE
:1011A0007C004FA7562602F0A1FC1FA900F0FEFA12
:1011B000040006D09DF87C0008B14BA700E04BA7C7
:1011C0004126DFF8149109F1480999F8040058B153
:1011D00099F8061041B1B9F8003046A208211BA8C1
:1011E00006F032FD0DF16C0899F8050050B199F840
:1011F000061039B1B9F802303EA208211DA806F048
:1012000023FD1DAD64B194F8480010B104F148000D
:1012100001E004F1280094F8381021B1383403E0DB
:101220002EA02EA400E01834CDE919402A48CDE9BB
:101230001776001D0DF14C0C448843782E48B0F908
:101240001410B0F916208CE81E00B0F90C100DF146
:101250003C0CB0F91240B0F91030B0F90E208CE817
:101260001E0090ED020A90ED011A1B49FDEEC00A26
:1012700090ED000A4031BDEEC11ABDEEC00A0A6809
:101280000B928DED0C1A8DED0D0ACDED0E0A09793C
:10129000806999F806200AB118A200E018A2CDE9E9
:1012A0000901CDE907529AF801109AF8000003AB42
:1012B000CDF8188083E8030807483830017983792E
:1012C00042798DE80E008378427801780D4806F067
:1012D000ABFC21B000F018B8200000202D2D00003C
:1012E0004E4F4E450000000042540000474E5353FD
:1012F00000000000257500000C0100204F4E00008A
:101300004F46460008CF000830BCBDE8C08F000043
:1013100070B50D280CD00024104E114D0A2808D0AD
:10132000E98A5F2917D2E98A7218491CE98210708C
:1013300070BDE88A78B1E87868B9E88A07495F2221
:10134000345401F16000FEF7D2FF0448603080F8A9
:101350005F400120E870EC82347070BDAC02002068
:101360000000002070B52DED048B9CB00D460400EC
:101370007CD0002DFCD000E0641C20782028FBD01D
:101380000928F9D006225CA12046FEF7F1FF90B1B2
:1013900009225BA12046FEF7EBFF70B104225BA19E
:1013A0002046FEF7E5FF50B104225AA12046FEF781
:1013B000DFFF20B104E0A41D02E0093400E0241D99
:1013C0005F22214602A8FEF792FF00208DF86700F9
:1013D000042250A102A8FEF7CBFF02AC38B9201DB1
:1013E000FEF79BFF421C211D02A8FEF74EFF0422C0
:1013F0004AA102A8FEF7BCFF38B9201DFEF78DFFF9
:10140000421C211D02A8FEF740FF3FA102A8FEF7E3
:10141000BFFF06463CA10020FEF7BAFF04462EB3EC
:1014200024B304223DA1FEF7A3FF00B9241D1AA98D
:10143000304607F0CDF91A98B0EE409AF0EE609A77
:10144000B04238D0007808B1202834D11AA92046FB
:1014500007F0BEF91A98B0EE408AF0EE608AA0421A
:1014600029D0007808B1202825D100E023E09FEDA5
:101470002D0B51EC190B53EC102BFFF751F91AD32C
:1014800051EC190B9FED290B53EC102BFFF760F972
:1014900011D351EC180B9FED270B53EC102BFFF7DA
:1014A0003FF908D351EC180B9FED240B53EC102B94
:1014B000FFF74EF904D200201CB0BDEC048B70BDC8
:1014C00060212846FEF708FF8DED009B1DA210212C
:1014D00005F1380006F0B8FB8DED008B19A2102144
:1014E00005F1480006F0B0FB012085F85A0002F033
:1014F000FDFAE8650120DFE742544750532C000015
:1015000050484F4E454750532C00000067656F3AD6
:10151000000000004C41543D000000004C4F4E3D87
:101520000000000000000000008056C00000000025
:101530000080564000000000008066C000000000EF
:1015400000806640252E35660000000070B5164DFF
:10155000E87800281CD00020E870144C00E0641CDF
:1015600020782028FBD00928F9D0C0B2242810D038
:101570000FA12046FEF7D8FE80B110A12046FEF74D
:10158000D3FE58B10F492046FFF7ECFE0120A871A9
:1015900070BD21460B4800F053F9F7E76021094878
:1015A000FEF79AFEF2E70000000000200C03002086
:1015B00042544750532C4F4646000000425446497F
:1015C000582C30008C01002010B5D8B10F49B1FB68
:1015D000F0F028B1401EB0F5803F01D34FF6FF7008
:1015E000411C82B20A480368DA62C2600068C1F333
:1015F0004F01C1630821064803F0F8FD05490120A9
:10160000887410BDBDE8104000F006B840420F00DD
:101610000006002000000020054810B500680024E6
:10162000C4630821024803F063FE0248847410BDBD
:101630000006002000000020A0F11402062A01D8B4
:10164000012200E00022A1F11E031E2B01D801237C
:1016500000E0002312B10BB1114870471A2803D9DA
:101660003C2901D90FA07047142803D21E2908D2A3
:101670000FA070471A2802D90948001F7047142884
:1016800002D207480C3870473C2902D90448203060
:1016900070471E2902D202481C30704707A07047CD
:1016A0006C230008486F742648756D69640000005B
:1016B000436F6C6426447279000000004E656172CD
:1016C000436F6D666F72740008B10C2801D91F203A
:1016D0007047022810D101F5FA618A070CD1642203
:1016E000B1FBF2F302FB13125AB94FF4C872B1FB0B
:1016F000F2F302FB131121B10349084410F8010C65
:1017000070471D20704700003AB8000810B501F07E
:1017100029F9054928B1054882790A70C0794870CD
:101720000120887010BD000020000020B6000020BD
:101730003FB51D491B4A0B7B22F8130007205B1C99
:10174000B3FBF0F400FB14300873C87A072801D209
:10175000401CC872C4B20020694605E032F810305F
:1017600021F81030401CC0B2A042F7D3012212E091
:1017700031F81230104603E021F81050401EC0B27C
:1017800028B101EB400535F8025C9D42F4D8521CAB
:1017900021F81030D2B2A242EAD324F00100085A54
:1017A00004B030BD440400200000002070B50C4699
:1017B000064601460C4800F07AFA002518B104B13B
:1017C0002570094870BD08483146603000F06FFA56
:1017D00028B10CB1012020700348603070BD04B105
:1017E0002570002070BD00002C01002070B50D2870
:1017F0000CD00024104E114D0A2808D0A98A5F2968
:1018000017D2A98A7218491CA982107070BDA88AC3
:1018100078B1A87868B9A88A07495F22345401F1E1
:101820006000FEF764FD0448603080F85F400120EE
:10183000A870AC82347070BDEC0100200000002064
:101840002DE9F04F4FF00007AFB03D4602970397E8
:101850000497059701970797089709970A9706979E
:101860002597269727972897B846CDE9297504002C
:101870004FF0560AC146C3467ED000297CD000E016
:10188000491C08782028FBD00928F9D0C0B22428A8
:1018900072D15F220BA8FEF72AFD8DF88B50F5A1BF
:1018A0000BA8FEF775FD064650E10A2F0DD2DFE8C2
:1018B00007F0050D386496C5FE0C0CEC0722314686
:1018C00001A8FEF714FD8DF80B5038E10622EAA1BD
:1018D00001A8FEF74DFD002878D00622E8A101A856
:1018E000FEF746FD0028F7D00622E7A101A8FEF783
:1018F0003FFD0028F0D00622E5A101A8FEF738FD43
:101900000028E9D00622E4A101A8FEF731FD002855
:101910005DD00622E2A101A8FEF72AFD002856D0DC
:101920000DE10622D4A101A8FEF722FD00287DD0FA
:101930000622D3A101A8FEF71BFD0028F7D006223E
:10194000D1A101A8FEF714FD002840D00622D0A1A5
:1019500001A8FEF70DFD002839D00622CEA101A86E
:10196000FEF706FD002864D00622CDA101A8FEF7EF
:10197000FFFC00285DD0E2E050E10622BEA101A8F4
:10198000FEF7F6FC18B30622BDA101A8FEF7F0FC95
:10199000E8B10622BCA101A8FEF7EAFC002848D065
:1019A0000622BBA101A8FEF7E3FC002841D00622D5
:1019B000B9A101A8FEF7DCFC002868D00622B8A176
:1019C00001A8FEF7D5FC002861D0B8E067E00F223F
:1019D000314603A8FEF78BFC8DF81B50AFE00622C2
:1019E000A5A101A8FEF7C4FC18B30622A4A101A872
:1019F000FEF7BEFCE8B10622A3A101A8FEF7B8FCE1
:101A0000002844D00622A2A101A8FEF7B1FCD8B359
:101A10000622A1A101A8FEF7ABFC00286ED0062289
:101A20009FA101A8FEF7A4FC002800E070E065D0AB
:101A300085E0307800289ED0804680E006228EA186
:101A400001A8FEF795FCF8B106228DA101A8FEF7CA
:101A50008FFCC8B106228CA101A8FEF789FC0028E2
:101A60004CD006228AA101A8FEF782FCF0B3062220
:101A700089A101A8FEF77CFC88B1062288A101A8F3
:101A8000FEF776FC58B15AE001E045E00FE00F2286
:101A9000314607A8FEF72BFC8DF82B504FE00F22A4
:101AA000314625A8FEF723FC8DF8A35047E0062217
:101AB00071A101A8FEF75CFCC0B1062270A101A8CB
:101AC000FEF756FC90B106226FA101A8FEF750FC6C
:101AD000C0B106226EA101A8FEF74AFC90B1062211
:101AE0006DA101A8FEF744FC90B100E006E00622DB
:101AF0006BA101A8FEF73CFC50B120E03078F0B1BA
:101B000081461CE03078302819D94FF0010B16E0DF
:101B10003078A0B1824612E0062257A101A8FEF754
:101B200027FC28B1062256A101A8FEF721FC30B9F6
:101B30000722314629A8FEF7DAFB8DF8AB504DA1FC
:101B40000020FEF725FC7F1C0646FFB2002E7FF426
:101B5000ACAE9DF8940028B10F2225A92046FEF7CF
:101B6000C6FBE5739DF8A40030B1072229A904F152
:101B70001000FEF7BCFBE57506223FA101A8FEF7A9
:101B8000F7FB88B106223EA101A8FEF7F1FB58B190
:101B9000062241A101A8FEF7EBFB28B1062240A1D5
:101BA00001A8FEF7E5FB10B9BAF1410F02D0BBF175
:101BB000000F37D09DF80C0098B39DF81C0080B33F
:101BC00004F118000F2203A90646FEF790FB04F16A
:101BD000280084F827500F2207A90746FEF787FB45
:101BE00084F8375084F8588084F85990102541467D
:101BF00004F1380301223046009500F073F9009596
:101C000094F8591004F148030022384600F06AF9AC
:101C1000012084F85A0001F069FFE0652FB000F060
:101C200043B8FFE7062214A101A8FEF7A1FBF0B11B
:101C3000062213A101A8FEF79BFBC0B1062212A148
:101C400001A8FEF795FB90B1062211A101A8FEF7AD
:101C50008FFB60B1062210A101A8FEF789FB30B10D
:101C600006220FA101A8FEF783FB0028D6D184F835
:101C70005A50D3E72C000000244750524D43000037
:101C800024474E524D43000024475047474100002F
:101C900024474E4747410000244750474C4C000022
:101CA00024474E474C4C000030BCBDE8C08F58B1B3
:101CB00090F85A2042B1C06D30B1081A42F210714A
:101CC000884201D801207047002070472DE9F84F65
:101CD0004FF090451021284601F0FDFE70B34FF003
:101CE000000800BF68F307042021284601F0F3FE36
:101CF00038B3002060F30F2400904021284601F003
:101D0000EAFE00B35FF0000060F3174482468021D2
:101D1000284601F0E0FEC0B15FF0000060F31F64F0
:101D2000364FA1460126A7F130048346A4F12405CD
:101D3000B8F1000F10D0387848B10DE04FF001082D
:101D4000D0E70120D6E70120DEE70120E6E7207892
:101D500038B1401E2070AE71009868B1787810B12B
:101D60000AE00520F6E720780621401CB0FBF1F2DE
:101D700001FB12002070AE71BAF1000F24D0B878C8
:101D800010BB2078012804D0022808D005280CD0E8
:101D90001AE060783C2817D2401C607013E060881D
:101DA000C82811D2401C60800DE015494FF0000892
:101DB0001448C1F818802821FEF78EFA4FF42F70CE
:101DC000E88385F80A80AE71BBF1000F12D0F87875
:101DD00080B92078012802D0022805D00AE0607876
:101DE00040B1401E607004E060883C2802D9401E6B
:101DF0006080AE71C5F8549000F006B85400002021
:101E00000C0100201C04002018BCBDE8E08F00007D
:101E100010B5104801F044FC00281AD105210D48E6
:101E200001F0C0FB80B90B4801F043F90A49642274
:101E30000860504340F6FF72B0FBF2F0C0F164005E
:101E4000642800D964200871BDE81040014801F001
:101E5000A1BC10BD54040020600000202DE9F04119
:101E60001D4F00261D4CF879B04680B304F11002D6
:101E7000911E881E04F02DFB012548B92577012607
:101E8000B4F91020B4F90E10B4F90C0000F0DCFC29
:101E9000124A1632911E881E04F034FB387A30B193
:101EA0000E4A211D08320D4808F01CFD60B176B1C4
:101EB000B4F91020B4F90E10B4F90C0000F00EFDC6
:101EC0009FED070A84ED020A2577BDE8F081FFE760
:101ED00084F81C80F9E70000000000200C010020BD
:101EE000000000002DE9FC479046DDF828901F0017
:101EF0000E4602464FF000054FF0010456D05FEA4F
:101F0000090053D000203870002A4FD010780028E4
:101F10004CD000216FF02F030CE02E2809D0A0F147
:101F2000300CBCF10A0F41D205EB850503EB4505EA
:101F30000544491C505C0028EFD12E211046FEF7C5
:101F4000E2F948B1401CFEF7E8F902E004EB840135
:101F50004C00401EFAD200E0012464206043B5FB2F
:101F6000F0F000FB04F16FF01802514305EB810122
:101F700042F210725143B1FBF4F13C22B1FBF2F199
:101F800040F27122504301EB00101201B0FBF2F15C
:101F900002FB1101B0FBF2F0CDE9000106B93F26CA
:101FA000334603A24946384605F04EFE00F006B817
:101FB0002563256C752E2530346C75000CBCBDE88E
:101FC000F08700002DE9F04FBBB000258DF8D85008
:101FD00001F08CFDA84641460DF1080601EB4102D7
:101FE00002EBC102491CC9B206F812500829F5D308
:101FF000B74F07F12404397919B121787A799142E0
:1020000003D021784FF001087971237806F12C0272
:1020100006F1580A3792002B3FD0583206F19A0148
:10202000CDE9001206F16E0B012B56D0A146022B12
:102030006FD0032B6ED0042B6DD0A6A13046FEF7D7
:102040008EF9A64CA6A21621A369379805F0FCFDCF
:10205000207F002873D094ED010AA4A21621BDEEC2
:10206000C00A504610EE103A05F0EEFD94ED000A5D
:10207000A1A21621BDEEC00A584610EE103A05F096
:10208000E3FD94ED020A9FA2BDEEC00A10EE103AE5
:102090001621019805F0D8FDFFE09DA13046FEF71E
:1020A0005EF98B4C5834E079A0B1A1786078CDE925
:1020B0000001237897A21621379805F0C5FDA17974
:1020C0006079CDE90001237997A21621504605F0E9
:1020D000BBFDE2E098A13798DDE09BA13046FEF71A
:1020E0003EF97B490DF14A0A20318A78002A32D024
:1020F00089460B7897A21621379805F0A5FD99F827
:102100000000142801D296A307E01A2804D996A348
:1021100003E035E062E09AE094A396A216215046CF
:1021200005F092FD99F8013094A21621584605F069
:102130008BFD99F801001E2802D293A305E0A4E0CC
:102140003C2801D991A300E088A392A2162101980E
:1021500005F07AFD0FE091A13798FEF700F992A102
:102160005046FEF7FCF892A15846FEF7F8F893A106
:102170000198FEF7F4F8637892A21621009889E797
:1021800093A13046FEF7EBF8514C6834607930B1DA
:10219000638894A21621379805F056FD03E094A1B8
:1021A0003798FEF7DCF8207930B1238893A2162106
:1021B000504605F049FD03E093A15046FEF7CFF8E5
:1021C000B9F8023093A21621019805F03DFDA079DF
:1021D00008B193A100E095A100985CE036A9FFF753
:1021E000E5FA044694A102A8FEF7B9F80CB39DF8ED
:1021F000D80008B193A300E093A395A216213798C5
:1022000005F022FD94F8380010B104F1380301E024
:1022100004F1180391A21621504605F015FD94F81B
:10222000480010B104F1480301E004F128038DA235
:102230002EE78EA13798FEF792F88FA15046FEF751
:102240008EF88FA10198FEF78AF88FA1C4E793A1B9
:102250003046FEF784F81E4C94A2603416212368A1
:10226000379805F0F1FC237993A21621504605F02A
:10227000EBFC2079462801D392A304E0232801D364
:1022800092A300E093A395A202E797A15046FEF720
:1022900066F899A10198FEF762F8002404EB440067
:1022A00000EBC40006EB400115222EA8FEF71FF834
:1022B0008DF8CD5042462EA9204600F029F9641C25
:1022C000E4B2082CEAD3012038713BB000F01CB90D
:1022D000000000204D6F74696F6E00000C0100203B
:1022E000537465703A2530356C750000526F6C6C14
:1022F0003A2534640000000050697463683A25345C
:1023000064000000596177203A2534640000000021
:10231000525443003230253032752D253032752D20
:102320002530327500000000253032753A253032F4
:10233000753A253032750000525443204E4F5420D8
:10234000524541445900000054656D70202F2048CB
:10235000756D690054656D703A2532754300000053
:10236000436F6C6400000000486F7400436F6D663B
:102370006F72740054656D703A25730048756D690D
:102380003A253275252500004472790048756D693B
:102390006400000048756D203A25730054656D7027
:1023A0003A2D2D430000000054656D703A2D2D002C
:1023B00048756D693A2D2D250000000048756D2087
:1023C0003A2D2D005761726E3A2532754300000098
:1023D0004865617274205261746520262053504F05
:1023E0003200000053504F323A2533752525000046
:1023F00053504F323A2D2D2D2500000048523A25DA
:10240000337562706D00000048523A2D2D2D6270B8
:102410006D0000005761726E3A25337500000000B0
:1024200046696E6765723A4F6E00000046696E67D6
:1024300065723A4F66660000475053202F20425481
:102440000000000042540000474E535300000000BB
:102450005352433A25732046495800004C61743A60
:10246000257300004C6F6E3A257300005352433AB7
:102470004E6F6E65000000004C61743A2D2D000017
:102480004C6F6E3A2D2D000053656E64204E4D4505
:1024900041206F7665722042540000004C696768E5
:1024A000742053656E736F72000000004144433A1C
:1024B00025346C75000000004C696768743A253358
:1024C0007525250042726967687400004E6F726D51
:1024D000616C00004461726B000000004C65766521
:1024E0006C3A2573000000004D5055204348454389
:1024F0004B205749524500004E6F206D6F74696F35
:102500006E2064617461000030BCBDE8C08F0000C3
:10251000F0B587B017460C460546082830D2202271
:10252000162101A8FDF7D1FE00268DF8196054B1DF
:102530002046FDF7F2FE0246152800D91522214655
:1025400001A8FDF7A2FE0F4805EB450101EBC5010F
:1025500000EB41044FB90C48007930B120461522F8
:1025600001A9FDF705FF00280AD0204601A9FDF7C3
:10257000F6FE22460C2329460020009604F09CFB20
:1025800007B0F0BD6C030020000000202DE9F041F1
:102590004E4DAE7903F054FD03F04CFDA87103F0ED
:1025A00045FEA9790127A5F16804B14200D0A771C1
:1025B0000026A1B1002821D04548007878B34548CD
:1025C00000682D2840DBA5283EDC80B2FFF7B0F87C
:1025D000627BAAB12988814214D90B1A13E02E809C
:1025E0006E802E716E716673A673E67326746674C0
:1025F0000E213948FDF770FEE6722673BDE8F081C2
:10260000288016E0431A9BB2022A09D30F2B07D960
:10261000637C022B04D25B1C0846637401E013E068
:102620006674C1EBC1010844001DC0082880042A5B
:1026300001D2521C6273D0B2E673022801D301208A
:1026400000E00020287111E0E07B042801D2401C4A
:10265000E073C0B2022809D32E802E7166736674AF
:102660000E211D48FDF738FEE67226731B480078E0
:10267000F0B11B48006850281ADB642818DC81B2CE
:10268000A07B80B16A88C2EBC2021144091DC9084F
:102690006980042801D2401CA073C0B226740228AD
:1026A00003D3012002E06980F5E7002068710AE0A9
:1026B000207C042801D2401C2074C0B2022802D31E
:1026C0006E806E71A673A77198E700006800002005
:1026D0009E000020AC000020440400209D0000204B
:1026E000A80000202DE9F04104005BD0E07900282B
:1026F00058D0002956D02079A279C0EB4013C3EB03
:10270000002002EB00106279274EC2EB021201EBAF
:1027100082014518012716E0A0783544012801D927
:10272000401E0FE06078012802D9401E607005E06D
:102730000C206070207808B1401E207021786078ED
:10274000FEF7C2FFA070002DE6DB17E016482178E7
:10275000404205446078FEF7B7FFA178491CC9B232
:10276000A17081420AD9A7706078401CC0B2607025
:102770000C2803D967702078401C2070B542E5DA38
:102780004FF4616095FBF0F1217195FBF0F100FBD6
:1027900011503C2190FBF1F2627190FBF1F201FBD0
:1027A0001200A071BDE8F0818051010010B500F069
:1027B00093F900F0D7F90B4942780A7082784A7091
:1027C000C2788A700279CA7042790A7182794A7134
:1027D000C07988710120C871BDE810400A21014804
:1027E000FFF780BF5800002070B51649144C002335
:1027F0004D7A1A4644F825000A206D1CB5FBF0F608
:1028000000FB16504872184654F8205015B1521C5F
:102810002B44D2B2401CC0B20A28F5D3002A0ED0F5
:10282000B3FBF2F000F5E17080B240F22622C883DB
:10283000904203D340F2DC52904200D9CA8370BD6B
:102840001C040020000000202DE9F04114460D4634
:10285000060000D57042002D00DA6942014410469E
:10286000002C00DA6042DFF86C800B18B8F9181001
:10287000B8F91C00B8F91A20002900DA4942002AE8
:1028800000DA52421144002800DA404208441F1A7C
:1028900000D57F421846FFF7A7FFB8F81E10404644
:1028A0008F4209D9817A71B90B498A69521C8A61B0
:1028B00001218172817106E00322B1FBF2F1B9427C
:1028C00001D90021817206834583A8F81C40BDE828
:1028D000F0810000000000200C01002010B500EE87
:1028E000100A2DED048BB8EEC09A00EE101AF8EE27
:1028F000C08A00EE102AB8EEC08A28EEA80A08EEB8
:10290000080A05F045FF10EE100AF0EE400AB0F19B
:102910007E5F01DAF7EE000AB1EE490A05F010FE1B
:102920009FED099A094CF0EE480A20EE090A84ED61
:10293000000AB0EE680A05F003FE20EE090A84EDF5
:10294000010ABDEC048B10BDE12E65420C01002094
:1029500000F00F01000900EB800001EB4000C0B265
:102960007047FEE72DE9F04186B000251421684646
:10297000FDF7B2FC4FF00008022004240127CDE946
:102980000280344ECDE900476946304600F094FF9E
:1029900000220421304601F0A3F8122000F066FF67
:1029A00001220421304601F09BF8142000F0E0F8E9
:1029B00014216846FDF790FCCDE900486946304691
:1029C000029700F079FF0421304601F084F81420CA
:1029D00000F0CEF80421304601F07DF81E4C28B1FD
:1029E00026E0012000F0C4F86D1CEDB20421304651
:1029F00001F071F808B9642DF3D3002504E001203B
:102A000000F0B6F86D1CEDB20421304601F063F819
:102A1000012801D1642DF2D35FF0000500F01EF80B
:102A200060556D1CEDB2052DF8D3322000F0A0F8F2
:102A300021786078E3780A18A07803441A4423794F
:102A4000934205D1E171A071012006B0BDE8F0818B
:102A50000020FAE700080048B60000202DE9F04108
:102A6000002425462646DFF86C8004E0012000F0B3
:102A70007FF86D1CEDB204214746404601F02BF86B
:102A800008B9642DF2D30025282000F071F8042144
:102A9000B846384601F01FF8012801D0002706E0AB
:102AA000012704E0012000F063F86D1CEDB2042161
:102AB000404601F010F8012801D1642DF2D36006E0
:102AC000761C0025F6B247EA1064082ED3D32046C0
:102AD000BDE8F0810008004800B585B04FF47A7277
:102AE000072103A88DE8070001230022D0211B48FD
:102AF00001F0B4F800282FD19DF80C0000F07F0001
:102B0000FFF726FF164AD0719DF80D0000F07F00F8
:102B1000FFF71EFF90719DF80E0000F03F00FFF7D9
:102B200017FF50719DF80F0000F00700FFF710FF2E
:102B300010719DF8100000F03F00FFF709FFD07002
:102B40009DF8110000F01F00FFF702FF90709DF844
:102B50001200FFF7FDFE507005B000BD60050020BB
:102B6000BF00002000487047BF00002070470000F1
:102B700070B54FF6FA75094E281A84B2306844626F
:102B8000304602F073F9306801E0416A8CB2AC4221
:102B9000FBD3BDE87040014802F0A4B94C06002008
:102BA000202000F07DBE72B6FEE770477047704788
:102BB000704770472DE9F047044690F850009AB0EE
:102BC0000E464FF00009012816D0012084F850006D
:102BD000002515951695324F2068B84210D1DFF8C0
:102BE000C480CDF80080404603F050FC8246206847
:102BF00003F04CFC60B10EE002201AB0BDE8F08793
:102C0000606D40F02000606584F850500120F4E7CA
:102C1000BAF1000F0AD0606D40F0200060654FF0FF
:102C2000010900BF84F850504846E6E71E48316865
:102C30001E4A0029816840F61F7321F460411CD0B0
:102C400094F830C041EA4C31D6F804C041EA0C0196
:102C50008160B968D8F8087001F0010107F0010738
:102C60009268394302F001021143DBD1B268316846
:102C7000114382689A4311430FE08160B968D8F824
:102C8000086001F0010106F001069268314302F08C
:102C900001021143C6D1816899438160C2E70000F7
:102CA00000000450000104500003045000020450CE
:102CB0002DE9F84F00270446009790F85000DFF800
:102CC000B8930D46B846012811D0012684F850600B
:102CD000206803F0D7FB60B1606D40F020006065B4
:102CE0005FF0010784F85080384600F0DDB902201B
:102CF000FBE76868052808D8022825D0032825D0D6
:102D0000042825D0052825D0062021680C2303EAB5
:102D1000901319442A680B6B00F01F004FF01F0C32
:102D20000CFA00FCC2F3846223EA0C0382401343D2
:102D30000B63206803F0A6FB8246206803F09EFB2D
:102D40005AEA000009D09AE00C20DEE71220DCE706
:102D50001820DAE74FF48070D7E7AA68296820685E
:102D600003F0A0FB20686969C268C2F3C102520087
:102D700091402A69042A0FD000EB82002B68026E72
:102D8000DFF8F8C203F0F84302EA0C020B431A43DF
:102D900042F00041016672E0002103F069FB40034C
:102DA00020684FF0000172D003F062FB90FAA0F0AF
:102DB000B0FA80F1286842036ED090FAA0F0B0FA21
:102DC00080F0814204D100221146206803F079FB93
:102DD0000121206803F04CFB400320684FF0010103
:102DE0005DD003F045FB90FAA0F0B0FA80F12868BE
:102DF000420359D090FAA0F0B0FA80F0814204D199
:102E000000220121206803F05CFB0221206803F00E
:102E10002FFB400320684FF0020148D003F028FB4D
:102E200090FAA0F0B0FA80F12868420344D090FAFA
:102E3000A0F0B0FA80F0814204D100220221206883
:102E400003F03FFB0321206803F012FB40032068DE
:102E50004FF0030133D003F00BFB90FAA0F0B0FA6F
:102E600080F1286842032FD090FAA0F0B0FA80F0E9
:102E7000814204D100220321206803F022FB206854
:102E8000816811F0010F22D0ABE000E004E003F014
:102E9000EFFAC0F384618DE7C0F3846091E703F03B
:102EA000E7FAC0F38461A2E7C0F38460A6E703F009
:102EB000DFFAC0F38461B7E7C0F38460BBE703F0D7
:102EC000D7FAC0F38461CCE7C0F38460D0E72A7BF3
:102ED000296850F8B03FC1F3120C23EA0C0302F04A
:102EE000180C674A22FA0CF20A4013430360E9689F
:102EF000494576D1286841031BD090FAA0F1B1FA78
:102F000081F1491C01F01F0109294FEA403131D8F4
:102F1000002911D090FAA0F1B1FA81F101F101017B
:102F200001F01F0106FA01F609D100BFC0F3846168
:102F300009E0C0F38461E4E7C0F38461EEE790FA4E
:102F4000A0F1B1FA81F101F1010101F01F0146EA9E
:102F5000816102D1C0F3846003E090FAA0F0B0FA7E
:102F600080F000F1010000F01F0000EB400041EA9A
:102F7000005132E000290ED090FAA0F1B1FA81F1AF
:102F800001F1010101F01F0106FA01F606D100BFAF
:102F9000C0F3846106E0C0F38461F1E790FAA0F128
:102FA000B1FA81F101F1010101F01F0146EA8161ED
:102FB00002D1C0F3846003E090FAA0F0B0FA80F090
:102FC00000F1010000F01F002E4A00EB400002EB70
:102FD000005041EA000141F00071AA68206803F046
:102FE00061FA29482A6802423FF47CAE274881688A
:102FF000274E284B284D01F0E071B2421DD10E0240
:103000001BD422689A4202D0AA427FF46BAE826837
:1030100041F4000122F0E0720A4382601F48204917
:103020000068B0FBF1F0401C00EB4000800000E0C5
:10303000401E00900028FBD154E61A4EB24209D13E
:10304000CE0107D422689A4201D0AA42F4D141F0BD
:1030500080710AE06FF00045EA42EDD14A02EBD4FC
:1030600022689A42E8D141F48001826822F0E0723D
:103070000A43826036E6000000007F4000F0FF0354
:10308000FFFF0700000020FE00000880000304503E
:10309000000052C700000450000204507C000020D1
:1030A000400D0300000084CB18BCBDE8E08F7047E2
:1030B00070470068006C70472DE9F05F04460068B7
:1030C00006684568DFF854B2DBF8080000F01F0717
:1030D000B0070ED5A8070CD5606DC00603D4606D8F
:1030E00040F4006060652046FFF75FFD2168022024
:1030F0000860DFF82CA2DFF82C82700701D5680782
:1031000003D4300737D5280735D5606DC00603D402
:10311000606D40F400706065206803F0BBF920B377
:103120002068504501D1424600E00246824208D064
:103130003FB1052F05D0092F03D0504503D141469B
:1031400002E0C16801E00146C96889040DD4016844
:1031500009070AD503F096F958B3606D40F01000E6
:103160006065A06D40F00100A0652046FFF79FFF5D
:1031700021680C200860B00601D5A80603D47006AB
:1031800058D5680656D5606DC00603D4606D40F40E
:10319000005060652068C16C11F0C00F1AD000218A
:1031A000894603F077F902462068504514D143461A
:1031B00013E02068416821F00C014160606D20F44B
:1031C00080706065606DC004CFD4606D40F0010018
:1031D0006065CAE70121E3E70346834208D03FB1B7
:1031E000062F05D0072F03D0504503D1414602E0FA
:1031F000C16801E00146C968B9F1000F14D08B0124
:1032000002D58AB18A040FD4026852060CD589020D
:103210000AD403F033F9E8B3606D40F01000606544
:10322000A06D40F00100A0652046FFF7BFFC2168BB
:103230006020086030060BD5280609D5606D40F483
:1032400080306065204600F059F9216880200860D0
:10325000F0050CD5E8050AD5606D40F400306065D6
:103260002046FFF7A5FC21684FF480700860B00588
:103270000CD5A8050AD5606D40F480206065204615
:10328000FFF797FC21684FF400700860F0062ED518
:10329000E80600E008E02AD5606BD0B1AFB1DBF8FA
:1032A000080000F4604013E02068416821F06001EC
:1032B0004160606D20F480506065606DC005B3D4DE
:1032C000606D40F001006065AEE72068C068C0072F
:1032D00050B1606D40F480606065A06D40F0020008
:1032E000A0652046FFF7E4FE216810200860700505
:1032F00012D5680510D5606D40F480406065A06D02
:1033000040F00800A06521684FF480600860204606
:1033100000F00AB8FFF74BBC00F00BB800030450F4
:10332000000104500000045030BCBDE8C05FFFF74E
:10333000F1BF30BCBDE8C09FF8B54FF000050400F8
:103340002E46009502D0606D10B107E00120F8BD57
:10335000204600F0D5F8A66584F8506020688168A2
:10336000C1F3407119B181685A4A114081602068E7
:103370008168C1F3007189B98168574A114041F0F1
:1033800080518160554856490068B0FBF1F040001B
:10339000801C00E0401E00900028FBD1206881685E
:1033A000C1F3007141B9616D41F010016165A16D1A
:1033B00041F00101A165012503F064F8616DC906C2
:1033C00000D430B1606D40F01000606501252846E2
:1033D000F8BD606D20F4807040F0020060652068E8
:1033E000806810F0010F15D13E4880683E4900F01A
:1033F0000100896801F0010108433C49896801F036
:103400000101084306D13A4960688A6822F47C12B7
:1034100002438A60E168606B627E0843A16841EA0A
:103420004231084394F8201040EA0140012904D1B8
:10343000A18C304A02EB41410843A16A29B101F451
:103440007071E26A014342EA01002268D1682A4BA6
:1034500019400143D160206803F010F8A8B9207E1C
:1034600094F83010800340EA41012068C26844F2B9
:1034700002039A430A43C26094F8380001280CD032
:103480002068016921F0010101612069012820689B
:10349000016B21F00F0111D013E0D4E90F010843B3
:1034A000D4E911121143084321680A6940F2FC7300
:1034B0009A43104340F001000861E6E7E269521EBA
:1034C00011430163606D20F0020040F0010060656F
:1034D0007DE70000C0FFFF5FC0FFFF7F7C00002092
:1034E000400D03000000045000010450000204508D
:1034F000000304500000FEFF07C0F0FF704700000B
:1035000010B5A8B00446142122A8FCF7E5FE8821D6
:103510006846FCF7E1FE20492068884239D14FF423
:103520008040009080031E900120019002901020A6
:10353000039007200490022005900690C005079094
:10354000684600F063FE08B1FFF72DFB1348C16C1D
:1035500041F40051C164C16C01F400512791C16C68
:1035600041F00401C164C06C22A900F0040027905E
:10357000082022900B20239000202490084800F07F
:103580009BF900221146122000F0C2FD122000F02B
:10359000B1FD28B010BD0000000004500010024032
:1035A000000800482DE9F04104463A480F4681687A
:1035B00001F01F05616908290FD085B1052D0ED0D6
:1035C000092D0CD0806800F4604060B1606D40F05F
:1035D000200060650120BDE8F081082604E0206835
:1035E000C068C007F1E7042600F080FA804615E0C5
:1035F000781C13D000F07AFAA0EB0800B84200D88B
:1036000067B920680068304208D1606D40F004005E
:103610006065002084F850000320DCE72068006823
:103620003042E5D0606D40F400706065206802F0C3
:1036300031FF80B1607E70B92068006800070AD54C
:10364000606D20F480706065606DC00403D4606DAF
:1036500040F001006065104A20681049904201D195
:103660000B4600E00346834210D07DB1052D0DD0FE
:10367000092D0BD0904200D00146C968082E07D012
:10368000490401D40C2101600020A4E7C168F5E7DA
:103690000821F8E700030450000104500000045022
:1036A0002DE9F04104463748806800F01F05206886
:1036B00002F0E8FE18B102210846BDE8F08194F856
:1036C000500001280CD0012084F850002046FDF75E
:1036D000C1FC01004FF0000304D084F85030EBE748
:1036E0000220EAE7606D40F60162904340F480708A
:1036F0006065254A2068254E904201D1374600E09A
:103700000746874200D01DB9676D27F480176765AB
:10371000676DFF0404D5A76D27F00607A76500E0D5
:10372000A3651C27076084F850302068904201D1BF
:10373000334600E00346834215D0A5B1052D12D0D3
:10374000092D10D0636D43F480136365904200D15E
:103750003046C0688001AFD5606D20F4005040F461
:1037600080506065A8E7C268920105D5626D22F4B9
:10377000005242F4805262658268054B1A40121D65
:10378000826099E7000304500001045000000450D7
:10379000C0FFFF7F10B5044690F85000012808D004
:1037A000012084F8500003212046FDF7A9FB10B149
:1037B0000BE0022010BD2046FDF714FC28B9616D16
:1037C00021F4885141F001016165002184F8501015
:1037D00010BD10B590F825100022022905D0042153
:1037E000C16380F82420012010BD01680B6823F01C
:1037F0000E030B6001680B6823F001030B6090F867
:103800004410046C01F01C03012101FA03F363600E
:1038100080F8251080F82420104610BD10B590F8CF
:1038200025100024022903D00421C16301241AE0D9
:1038300001680A6822F00E020A6001680A6822F034
:1038400001020A6090F84410036C01F01C0201218F
:1038500001FA02F25A6080F82510002180F8241045
:10386000816B01B18847204610BD000070B5044649
:1038700000F03CF90546601C02D00448007804447E
:1038800000F034F9401BA042FAD370BD7000002054
:10389000202802D101490120C871704798000020FA
:1038A000044910B50A68024202D00860FFF7F0FF31
:1038B00010BD0000140401402DE9F04FDFF8EC9139
:1038C00000220127A9F1040B85B003254FF00F0C4E
:1038D00009F1040AABF1040EE0E000BF07FA02F4BC
:1038E00016EA04037ED00E7906F00306012E01D0FD
:1038F000022E1FD186680096560005FA06F8049637
:10390000009E26EA08060096D1F80C80049E08FA6C
:1039100006F8009E48EA0608C0F80880466891F854
:103920000480A643C8F3001808FA02F848EA06081B
:10393000C0F80480D1F804806FEA0806B6070AD1FF
:10394000C66AA643C8F3C00494403443C4620C79E9
:10395000E443A4070AD0C4684FEA420805FA08F60F
:10396000B4438E6806FA08F62643C6600C7904F064
:103970000304022C11D1D40800EB84060296D6F879
:1039800020805407E60E0CFA06F428EA04080C69B5
:10399000B440029E44EA0804346204685600029669
:1039A00005FA06F6B4430E7906F00308029E08FAFB
:1039B00006F848EA0408C0F800804C6814F4403F58
:1039C0006BD03B4C266E46F001062666246E22F034
:1039D000030604F001040094364C34440294A468B5
:1039E000960700E059E04FEA16780CFA08F6B4435F
:1039F000B0F1904F04D0304EB04203D101261BE00D
:103A0000002619E02D4EB04201D1022614E02C4EC2
:103A1000B04201D103260FE02A4EB04201D1042664
:103A20000AE0294EB04201D1052605E0274EB042FA
:103A300001D1062600E0072606FA08F62643029C76
:103A4000A660D9F800404E46D1F804809C435FEA56
:103A5000C82800D51C433460DAF800405646D1F837
:103A600004809C435FEA882800D51C433460DBF85F
:103A700000405E46D1F804809C435FEA883800D558
:103A80001C433460DEF800407646D1F804809C4345
:103A90005FEAC83800D51C433460521C0B681E46D0
:103AA000D3407FF41BAF05B000F012B8080401400A
:103AB00000100240000001400004004800080048D7
:103AC000000C00480010004800140048001800488E
:103AD00030BCBDE8C08F0069084000D001207047AD
:103AE0000AB18161704781627047000001488068B7
:103AF000704700007000002090F84120202A24D157
:103B000090F84020012A20D0012280F84020242271
:103B100080F841200268136823F0010313600268F3
:103B2000136823F480531360026813680B43136017
:103B300001680A6842F001020A60202180F8411001
:103B4000002180F84010084670470220704790F826
:103B50004120202A22D190F84020012A1ED00122A3
:103B600080F84020242280F841200268136823F066
:103B7000010313600268136823F4706343EA0121B0
:103B8000116001680A6842F001020A60202180F891
:103B90004110002180F8401008467047022070470D
:103BA00070B5040004D094F84100002510B106E07F
:103BB000012070BD84F84050204600F0B5F9242063
:103BC00084F841002068016821F00101016060680B
:103BD000216820F0706008612068816821F400414C
:103BE0008160E0680128A06830D040F4044021687A
:103BF0008860E0680228206841682AD021F40061CA
:103C0000416020684168144A114341602068C168DE
:103C100021F40041C160D4E904010843A16940EAEC
:103C200001202168C860D4E90701084321680860C1
:103C30002068016841F0010101606564202084F87A
:103C40004100256384F84250002070BD40F40040DC
:103C5000CDE741F40061D3E7008000022DE9FF4F7A
:103C600083B00446DDE9108790F84100DDF848A0F4
:103C70009B46202876D15FEA080015D0A7B194F8BA
:103C8000400001286ED04FF0010984F84090FFF702
:103C90002DFF0646012200901923D103204601F092
:103CA00069FF002872D103E04FF4007060646DE09A
:103CB000222084F84100402084F8420000256564F9
:103CC000C4F8248067856563CDE900A6DDE90412A8
:103CD0005B46204601F0D2FE10B184F8405055E01A
:103CE000618D35484FF080774FF00078FF2905D976
:103CF000A4F828904A463B46009005E0618D218556
:103D0000009094F8282043462046049901F01AFFB9
:103D10005346002204212046009601F02BFFA8BB49
:103D20002068406A616A0870606A401C6062208D89
:103D3000401E81B22185608D401E6085608DE0B19E
:103D4000D9B95346002280212046009601F012FF87
:103D5000E0B9608DFF2806D9A4F828904A463B4672
:103D6000009506E026E0608D2085009594F82820D7
:103D700043462046049901F0E5FE608D0028C7D136
:103D800032465146204601F032FF18B1012007B0FB
:103D900000F016B821682020C86121684A68074BE6
:103DA0001A404A6084F8410084F8425084F8405038
:103DB0000020ECE70220EAE70024008000E800FE93
:103DC00030BCBDE8C08F00002DE9FF4F83B0044632
:103DD000DDE9108790F84100DDF848909A46934657
:103DE000202871D15FEA080014D09FB194F84000F8
:103DF000012869D0012084F84000FFF777FE0646CD
:103E0000012200901923D103204601F0B3FE0028BF
:103E10006ED103E04FF40070606469E0212084F803
:103E20004100402084F8420000256564C4F82480E5
:103E300067856563CDE9009653465A462046049946
:103E400001F04EFE10B184F8405051E0608DFF2724
:103E50004FF080784FF0007AFF2804D927853A4642
:103E60004346009505E0608D2085009594F8282054
:103E700053462046049901F065FE324649462046E5
:103E800001F0E0FEA0BB606A216800788862606A89
:103E9000401C6062608D401E6085208D401E80B297
:103EA0002085618DD9B1D0B94B46002280212046B2
:103EB000009601F05FFED8B9608DFF2805D92785EF
:103EC0003A464346009506E026E0608D2085009541
:103ED00094F8282053462046049901F033FE608D63
:103EE0000028CAD132464946204601F080FE18B16A
:103EF000012007B000F014B820682021C1612068BB
:103F00004268064B1A40426084F8411084F84250DF
:103F100084F840500020ECE70220EAE700E800FEC9
:103F200030BCBDE8C08F00002DE9F043A9B00446C5
:103F3000142122A8FCF7D0F988216846FCF7CCF9B7
:103F40003E4A20683E4C122603250427DFF8F490F1
:103F50000021904222D1402014910090884668466A
:103F600000F054F908B1FEF71EFEE06C40F00200CC
:103F7000E064E06C22A900F002002790C02081E8F4
:103F80004101CDE925574846FFF796FCA06D40F466
:103F90000010A065A06D00F4001025E02A4A9042B0
:103FA00026D18020009088461591684600F02EF9B1
:103FB00008B1FEF7F8FDE06C40F00200E064E06C50
:103FC00022A900F0020027904FF4406081E84101EF
:103FD000CDE925574846FFF76FFCA06D40F48000FF
:103FE000A065A06D00F48000279029B0BDE8F083A3
:103FF000164A9042F9D1801500908846169168467D
:1040000000F004F908B1FEF7CEFDE06C40F00400CA
:10401000E064E06C22A900F0040081E86001CDE9D1
:10402000267025950A48FFF747FCA06D40F4000074
:10403000A065A06D00F40000D6E700000054004029
:10404000001002400004004800580040005C00409E
:104050000008004802488168027811448160704776
:104060007000002010B50024032000F071F80F202C
:1040700000F008F808B1012401E000F025F820461E
:1040800010BD000070B50E4E05460024307898B182
:104090004FF47A71B1FBF0F00A490968B1FBF0F016
:1040A00000F030FE40B9102D06D200222946501EE5
:1040B00000F02EF8756000E00124204670BD00007D
:1040C000700000207C000020094808B5016E41F016
:1040D00001010166016E01F001010091816D41F065
:1040E00080518165806D00F08050009008BD000017
:1040F00000100240002809DB00F01F02012191405E
:104100004009800000F1E020C0F800117047000075
:10411000F0B40E4B1B680C46C3F30223C3F1070532
:10412000042D00D90425191D072901D2002300E020
:10413000DB1E012606FA05F1491E214099409E40EA
:10414000761E16403143F0BC03F0C1BD0CED00E01B
:10415000064900F0070208684FF6FF03184040EADE
:104160000220034A10430860704700000CED00E095
:104170000000FA051649B0F5007F0868C0F3412039
:1041800009D0022805D0086820F4C06040F480609F
:104190000860002070470128FBD0086820F4C06048
:1041A00040F4007008600B483222006850430A4A0D
:1041B000B0FBF2F0401C00E0401E4A69520501D5F8
:1041C0000028F9D148694005E3D503207047000075
:1041D000007000407C00002040420F000248006850
:1041E00000F4C060704700000070004002480168A1
:1041F00041F480710160704700700040024801681E
:1042000041F0040101607047001002402DE9F84FB1
:10421000044600270088E54D3E46010504F1200BC9
:104220001DD5606E78B1B0F5800F11D0B0F5000FDC
:1042300004D0B0F5400F22D001270FE0E86840F429
:104240008030E8601BE00021201D02F087FD03E0C4
:104250000021584602F018FE070010D03E46208884
:10426000C00426D5A06EC0B1B0F1807F1AD0B0F1E5
:10427000007F0DD0B0F1407F19D0012718E0D5F8AC
:104280008800616E20F440000843C5F88800E6E726
:10429000E86840F48030E86009E00021201D02F069
:1042A0005DFD03E00021584602F0EEFD0746F7B140
:1042B0003E46206880033AD5A86D4FF00008C00044
:1042C00009D4A86D40F08050A865A86D4FF0010892
:1042D00000F080500090DFF8D8A2DAF8001041F426
:1042E0008071CAF80010FFF701FC814610E0D5F894
:1042F0008800A16E20F040700843C5F88800D8E718
:10430000FFF7F4FBA0EB0900022801D9032705E021
:10431000DAF80000C005F3D5002F7CD04FEA07067D
:10432000B8F1000F03D0A86D20F08050A865207868
:10433000C00707D0D5F88800A16B20F00300084320
:10434000C5F888002078800707D5D5F88800E16B8C
:1043500020F00C000843C5F888002078400707D5F6
:10436000D5F88800216C20F030000843C5F888009B
:104370002078000707D5D5F88800616C20F0C000D0
:104380000843C5F888002078C00607D5D5F888000E
:10439000A16C20F440700843C5F88800207880069E
:1043A00007D5D5F88800E16C20F440600843C5F8D3
:1043B00088002088800507D5D5F88800E16D20F4B5
:1043C00040200843C5F888002088400507D5D5F867
:1043D0008800216E20F440100843C5F8880020783A
:1043E000400607D5D5F88800216D20F440500843D9
:1043F000C5F888002078000607D5D5F88800616DDB
:1044000020F440400843C5F888002088C00509D53D
:10441000D5F8880000E01CE0A16D20F4403008438E
:10442000C5F8880020884FF0006780044FF080684E
:104430004FD5D5F88800E16E20F040600843C5F8FC
:104440008800E06EB8423CD1E86840F48010E86033
:104450003FE0D5F8900010F4407015D0D4F88410E7
:10446000814211D0D5F89000D5F8901020F440701A
:1044700041F48031C5F89010D5F8901021F48031C6
:10448000C5F89010C5F89000C00710D0FFF72EFBBC
:10449000074641F2883906E0FFF728FBC11B494572
:1044A00001D903263CE7D5F890008007F4D5D5F86C
:1044B0009000D4F8841020F440700843C5F89000B0
:1044C0002EE7404505D10121201D02F047FC00B137
:1044D00006462068000317D5D5F88800216F20F024
:1044E00040600843C5F88800206FB84204D1E868EE
:1044F00040F48010E86007E0404505D10121201D0F
:1045000002F02CFC00B106462068400317D5D5F810
:104510008800616F20F040600843C5F88800606F34
:10452000B84204D1E86840F48010E86007E04045F4
:1045300005D10121201D02F011FC00B106462088A2
:1045400040041AD5D5F88800A16F20F040500843E8
:10455000C5F88800A06FB0F1805F03D0B0F1005FB4
:1045600005D00AE00221201D02F0F8FB03E0022141
:10457000584602F089FC00B106462088000407D5A1
:10458000D5F88800E16F20F080400843C5F8880026
:104590002068C00307D555F8880FD4F8801020F0A4
:1045A000004008432860304600F004B80010024084
:1045B0000070004018BCBDE8E08F00002DE9F04716
:1045C0000F4605006BD0494E306800F00700B84236
:1045D00009D2306820F0070038433060306800F0BE
:1045E0000700B8425BD12878414C80070AD5A868FB
:1045F000A16801F0F001884204D9A16821F0F0011E
:104600000143A1602878C0072CD06868032811D026
:10461000022812D0216898B1490500293FDAA16823
:1046200021F003010143A160FFF760FA804641F2E7
:10463000883910E021688901EFE721688903ECE7F8
:104640008907EAE7FFF752FAA0EB0801494502D9CA
:104650000320BDE8F087A068696800F00C00B0EBAB
:10466000810FEFD1287880070AD5A868A16801F0EA
:10467000F001884204D2A16821F0F0010143A16059
:10468000306800F00700B8420BD9306820F007000E
:1046900038433060306800F00700B84201D0012094
:1046A000D7E72878400705D5A068E96820F4E060DE
:1046B0000843A0602878000706D5A068296920F47F
:1046C000605040EAC100A06000F03EF8A168094ACD
:1046D000C1F30311515C01F01F01C8400649086095
:1046E00006480068BDE8F047FFF7CCBC0020024058
:1046F0000010024048B800087C0000207400002030
:104700000548064900688968054AC1F30221515CE1
:1047100001F01F01C84070477C00002000100240DB
:1047200088B800080548064900688968054AC1F349
:10473000C221515C01F01F01C84070477C0000207D
:104740000010024088B8000870B5254900231846BB
:104750008A68CC6812F00C0204F00306214C4FEA80
:10476000640509D00C2A05D0042A32D0082A00D1C9
:10477000284670BD012E10D10B681B0704D4D1F858
:104780009430C3F3032302E00B68C3F30313164E04
:1047900056F82330DAB10C2AEBD1C86800F00300D8
:1047A000022818D0032818D01846CA68CB68C2F36C
:1047B0000212C3F306234343521CB3FBF2F2C86850
:1047C000C0F34160401C4000B2FBF0F070BD1846E1
:1047D00070BD204670BD2046E7E72846E5E70000AB
:1047E000001002400024F40058B800082DE9F843F6
:1047F00004006FD0FD4DA86800F00C06E86800F0DA
:1048000003072078C00664D576B10C2E01D1012FA4
:104810000AD0A069002828687AD040F001002860FA
:10482000FFF764F980465DE02868800702D5A0693B
:104830000028DED0216A2868000703D5286800F028
:10484000F00004E0D5F89400F02202EA1010814252
:1048500016D9084602F09CFB00283BD1286840F09E
:10486000080028602868216A20F0F00008432860CA
:104870006868E16920F47F4040EA0120686016E042
:10488000286840F0080028602868216A20F0F000BD
:10489000084328606868E16920F47F4040EA01200D
:1048A000686026B9206A02F073FB0028D5D1FFF7B3
:1048B0004BFFA968CE4AC1F30311515C01F01F01FF
:1048C000C840CC490860CC480068FFF7DBFB0028F3
:1048D0007ED12EE0CAE000BFFFF708F9A0EB080088
:1048E000022876D828688007F6D5286840F00800A6
:1048F00028602868216A20F0F00008432860686872
:10490000E16920F47F4040EA0120686011E0FFE7A0
:1049100020F001002860FFF7E9F8804606E000BFBC
:10492000FFF7E4F8A0EB08000228DAD8286880072F
:10493000F6D42078C00740D0082E18D00C2E01D114
:10494000032F14D06068B0F5803F17D0B0F5A02FCA
:10495000286817D020F480302860286820F4802050
:1049600028606068E0B1FFF7C1F8804614E028686D
:10497000800322D56068002878D01EE0286840F4C3
:104980008030EDE740F480202860F7E7FFF7AEF8CD
:10499000A0EB08006428A4D828688003F6D50CE0B2
:1049A000FFF7A4F8804605E0FFF7A0F8A0EB0800A9
:1049B000642896D828688003F6D4207880073BD5F1
:1049C000042E11D00C2E01D1022F0DD0E06801E091
:1049D00086E1D6E0002828681ED040F48070286068
:1049E000FFF784F807460CE0286840050CD5E0681E
:1049F0000028C1D008E000BFFFF778F8C01B0228EC
:104A000093D828684005F7D56868217C20F0F850D5
:104A100040EA016068600FE020F480702860FFF7D2
:104A200065F8074605E000BFFFF760F8C01B0228E5
:104A3000B1D828684005F7D42078000729D56069E7
:104A40000028D5F8940012D040F00100C5F8940079
:104A5000FFF74CF8074604E0FFF748F8C01B0228B0
:104A600099D8D5F894008007F6D512E000E120F03F
:104A70000100C5F89400FFF739F8074605E000BFCC
:104A8000FFF734F8C01B02287BD8D5F894008007C4
:104A9000F6D42078400766D5A86D0027C00008D45A
:104AA000A86D40F08050A865A86D012700F08050E7
:104AB000009052480168C90512D40168814641F44A
:104AC00080710160FFF712F8804605E0FFF70EF8ED
:104AD000A0EB0800022854D8D9F80000C005F5D58D
:104AE000A068012816D00528D5F8900017D020F02E
:104AF0000100C5F89000D5F8900020F0040000BF38
:104B0000C5F89000A06841F28839C0B1FEF7EEFF09
:104B100080460FE0D5F8900040F00100F0E740F04B
:104B20000400C5F89000F5E7FEF7E0FFA0EB0801F0
:104B3000494526D8D5F890008007F5D50EE0FEF758
:104B4000D5FF804606E000BFFEF7D0FFA0EB0801CE
:104B5000494516D8D5F890008007F5D41FB1A86D47
:104B600020F08050A865A06AF0B302280AD00C2E6D
:104B70007ED0286820F080702860FEF7B7FF0446DA
:104B8000B0E0ACE0E868E26A00F00301914229D1AC
:104B9000216B00F0700209011039914222D1626B41
:104BA00000F4FE41B1EB022F1CD1A26B00F40031E6
:104BB000072A01D0012200E00022914212D1A18FE8
:104BC00000F4C00249084905A1F50011914209D13C
:104BD00094F8401000F0C06049084906A1F1007146
:104BE00081425ED00C2E0BE072E00000001002400B
:104BF00048B800087C0000207400002000700040CD
:104C000079D02868400176D42868C00073D4286819
:104C100020F080702860FEF769FF064605E000BFBF
:104C2000FEF764FF801B022859D828688001F7D45A
:104C3000D4E90B016FF00F0202EB01110843A18FC1
:104C40005204490802EB4151626B41EA02210843D8
:104C500094F840104FF07E42490802EB416108434E
:104C6000A16B090940EA4140E968244A114000E08B
:104C700041E00843E860286840F080702860E868F8
:104C800040F08070E860FEF731FF044605E000BFA9
:104C9000FEF72CFF001B022821D828688001F7D5D9
:104CA00027E02868800124D4286840F080702860BC
:104CB000E86840F08070E860FEF718FF044604E002
:104CC000FEF714FF001B022809D828688001F7D5D9
:104CD0000FE000BFFEF70AFF001B022802D90320E5
:104CE000BDE8F88328688001F4D4E86804490840E6
:104CF000E8600020F4E70120F2E700008C809DF9D5
:104D0000FCFFEEFE10B5401EB0F1807F01D3012004
:104D100010BD4FF0E02460610F21601702F0D7FF53
:104D20000020A06107202061002010BDF0B590F8A0
:104D30003C20012A39D0012480F83C40022280F82E
:104D40003D20026853689568194E1A4FB24201D04F
:104D5000BA4204D123F4700C4B6843EA0C0323F0ED
:104D6000700C0B6843EA0C0353600268B24210D027
:104D7000B2F1804F0DD0104B9A420AD00F4B9A429D
:104D800007D00F4B9A4204D0BA4202D00D4B9A4240
:104D900004D1896825F080031943916080F83D4073
:104DA000002180F83C100846F0BD0220F0BD000054
:104DB000002C014000340140000400400008004085
:104DC000000C00400040014010B5040003D094F8EE
:104DD0003D0010B107E0012010BD002084F83C0028
:104DE000204600F023F8022084F83D00211D2068B1
:104DF00002F05EF9012084F8480084F83E0084F84F
:104E00003F0084F8400084F8410084F8420084F8B0
:104E1000430084F8440084F8450084F8460084F890
:104E2000470084F83D00002010BD000008B50C4A82
:104E300001680C48914207D1016E41F4006101669E
:104E4000006E00F4006009E0074A914207D1816DCD
:104E500041F004018165806D00F00400009008BD00
:104E6000002C0140001002400008004090F83D1066
:104E7000012901D001207047022180F83D1000680F
:104E80001149884211D0B0F1804F0ED00F498842AD
:104E90000BD00F49884208D00E49884205D00E49F0
:104EA000884202D00D49884207D181680C4A1140DE
:104EB000062906D0B1F5803F03D0016841F0010119
:104EC0000160002070470000002C014000040040F9
:104ED00000080040000C0040003401400040014048
:104EE0000700010001680A6A41F211131A4207D152
:104EF0000A6A9B101A4203D10A6822F001020A6072
:104F0000012180F83D1000207047000070B5044674
:104F100090F83C000025012817D0012684F83C6059
:104F2000022084F83D00226890682F4B184020F43E
:104F30007F4090600868502838D00DDC20284FD082
:104F400005DC90B3102811D14AE0022070BD302852
:104F500046D040280AD13BE060282FD070280DD0E1
:104F6000B0F5805F03D0B0F5005F12D0012584F862
:104F70003D60002084F83C00284670BDCB68D1E934
:104F80000121206802F009F92068816841F0770169
:104F900009E0CB68D1E90121206802F0FEF8206821
:104FA000816841F480418160E1E719E0CA6849689D
:104FB000206802F08DFA5021206806E0CA6849682E
:104FC000206802F096FA6021206802F0F0F8CEE73F
:104FD000CA684968206802F07BFA40212068F4E73B
:104FE000226801461046F0E788FFFEFF10B586B044
:104FF000044614216846FBF76FF90D492068884282
:1050000014D10C48C16C41F00201C164C06C002194
:1050100000F002000590012000900220CDE901017E
:10502000CDE9031069460448FEF746FC06B010BD02
:1050300000040040001002400004004870B504461F
:1050400090F83C0000260D4601280BD0012084F882
:105050003C000C2A4AD007DC82B1042A20D0082A5E
:1050600006D131E0022070BD102A53D0142A63D03B
:105070000126002084F83C00304670BD206802F014
:105080009FF82068816941F0080181612068816989
:1050900021F004018161206881692A69114311E0CE
:1050A000206802F0DBF82068816941F400618161C9
:1050B0002068816921F480618161206881692A69A1
:1050C00041EA02218161D4E7206802F00FF92068EB
:1050D000C16941F00801C1612068C16921F0040182
:1050E000C1612068C1692A69114311E0206802F09A
:1050F00045F92068C16941F40061C1612068C16956
:1051000021F48061C1612068C1692A6941EA0221F4
:10511000C161AEE7206802F06BF92068416D41F093
:10512000080141652068416D21F004014165206856
:10513000416D2A69114311E0206802F091F920685D
:10514000416D41F4006141652068416D21F4806149
:1051500041652068416D2A6941EA0221416588E77D
:1051600010B5040003D094F83D0010B107E0012011
:1051700010BD002084F83C00204600F023F80220F7
:1051800084F83D00211D206801F092FF012084F881
:10519000480084F83E0084F83F0084F8400084F81A
:1051A000410084F8420084F8430084F8440084F805
:1051B000450084F8460084F8470084F83D0000204C
:1051C00010BD000008B500680649884208D10648AD
:1051D000816D41F002018165806D00F00200009058
:1051E00008BD0000000400400010024030B5044635
:1051F000022269B1042912D0082917D00C291CD029
:10520000102921D094F84300012824D0012030BD7A
:1052100094F83E000128F9D184F83E201DE094F86E
:105220003F000128F2D184F83F2016E094F84000B6
:105230000128EBD184F840200FE094F841000128C8
:10524000E4D184F8412008E094F842000128DDD13F
:1052500084F8422001E084F843200122206801F014
:105260008FFF1A4A20681A4B1A49904209D0984277
:1052700007D0884205D0184DA84202D0174DA84249
:1052800003D1456C45F400454564206890420FD039
:10529000B0F1804F0CD0124A904209D0114A90428E
:1052A00006D0114A904203D0984201D0884207D1DB
:1052B00081680E4A1140062906D0B1F5803F03D01F
:1052C000016841F001010160002030BD002C014067
:1052D00000340140004001400044014000480140CA
:1052E0000004004000080040000C004007000100DE
:1052F00030B504460D460068002201F041FF224B04
:1053000041F2111120688A1098420BD01F4B98422D
:1053100008D01F4B984205D01E4B984202D01E4B1E
:10532000984209D1036A0B4206D1036A134203D1A2
:10533000436C23F4004343642068036A0B4206D1A4
:10534000016A114203D1016821F0010101600120CD
:105350005DB1042D0CD0082D0DD00C2D0ED0102DCC
:105360000FD084F84300002030BD84F83E00FAE7F7
:1053700084F83F00F7E784F84000F4E784F8410040
:10538000F1E784F84200EEE7002C014000340140D0
:105390000040014000440140004801407047704710
:1053A00000680C4A0821904206D10B48006801624F
:1053B00001220A49084809E0094A904208D10948EF
:1053C0000068016205490122491C064800F020BA24
:1053D0007047000000480040200700200000002027
:1053E00000380140980600202DE9F041026804468B
:1053F000D0691168936840F60F0528424FF0000508
:105400004FF0020605D187067ED58F067CD5A16EAA
:1054100033E1DFF894C203F0010701EA0C0C57EA0C
:105420000C0C71D05FEAC07C0CD05FEAC15C09D57E
:105430004FF0010CC2F820C0D4F8842042F00102E1
:10544000C4F88420820709D5DA0707D022681662DB
:10545000D4F8842042F00402C4F8842042070AD51C
:10546000DA0708D0236804221A62D4F8842042F0B4
:105470000202C4F8842002070CD501F020023A434E
:1054800008D0236808221A62D4F8842042F0080267
:10549000C4F8842002050BD54A0109D523684FF4CE
:1054A00000621A62D4F8842042F02002C4F88420FA
:1054B000D4F88420002A36D0800605D5880603D586
:1054C000A16E09B120468847D4F884002168896814
:1054D000490602D410F0280F27D0204602F0DDF84C
:1054E0002068806840061BD52068083050E8001FFF
:1054F00021F0400140E80012002AF5D1606F78B138
:105500006A498163606F00E015E0FEF787F90028C3
:1055100009D0606F816B00E02046BDE8F04108478C
:105520002046FFF73DFFBDE8F0812046FFF738FF3A
:10553000C4F88450F7E7D4F860C02027BCF1010F0D
:105540007ED15FEAC06C7BD55FEAC16C78D5102054
:1055500010622068806840064FD5616F0A68506805
:105560000004000C3DD0B4F85830834239D9A4F877
:105570005A000868006880062BD4206850E8001F95
:1055800021F4807140E80012002AF6D1206808302A
:1055900050E8001F21F0010140E80012002AF5D177
:1055A0002068083050E8001F21F0400140E8001258
:1055B000002AF5D1C4F880702566206850E8001FE5
:1055C00021F0100140E80012002AF6D1606FFEF7CA
:1055D00000F96666B4F85800B4F85A10401A81B25F
:1055E00007E0B4F8581081429DD1106880069AD522
:1055F00066662046FFF7D2FE95E7B4F85800B4F887
:105600005A10401A81B2B4F85A0000288BD00029F1
:1056100089D0226852E8000F20F4907042E800031D
:10562000002BF6D12068083050E8002F22F001024C
:1056300040E80023002BF5D1C4F88070256600E017
:105640000AE0A566226852E8000F20F0100042E848
:105650000003002BF6D1CBE7C60209D55B0207D5C4
:105660004FF4801010622046BDE8F041FFF797BE6E
:10567000020606D50A0604D5E16E00297FF44CAF78
:1056800051E74006B8D54806B6D52046026852E82C
:10569000001F21F0400142E80013002BF6D1C7673C
:1056A000C56600F051F93EE7200100048776000846
:1056B00010B5040002D0E06F10B107E0012010BD6A
:1056C000002084F87800204600F026F82420E067C7
:1056D0002068016821F001010160606A10B1204674
:1056E00001F019FF204602F0C7F80128E7D0206832
:1056F000416821F4904141602068816821F02A01CD
:1057000081602068016841F0010101602046BDE828
:10571000104001F064BF00002DE9F041A8B004463C
:10572000142122A8FAF7D8FD88216846FAF7D4FD9B
:1057300033492068334C0226032700254FF0070821
:1057400088422BD1012000900E956846FEF75EFD41
:1057500008B1FDF728FA206E40F480402066206EE4
:1057600000F480402790E06C40F00100E064E06CC1
:1057700024AA00F0010027904FF4C060CDE9220672
:1057800082E8A00122A94FF09040FEF795F801228F
:1057900000212520FEF7BCFC25202BE01A49884279
:1057A0002AD10420009010956846FEF72FFD08B11D
:1057B000FDF7F9F9A06D40F48020A065A06D00F41C
:1057C00080202790E06C40F00400E064E06C24AAA4
:1057D00000F0040027903020CDE9220682E8A001E5
:1057E00022A90A48FEF768F8002211462720FEF792
:1057F0008FFC2720FEF77EFC28B0BDE8F08100007A
:1058000000380140001002400048004000080048F5
:1058100030B4D0F88030202B02D0022030BC70474A
:10582000A9B1A2B1002303660A4C0368A3420BD0BE
:105830005B681B0208D5046854E8003F43F08063AE
:1058400044E80035002DF6D130BC02F039B9012012
:10585000E4E700000080004010B500680C4A0D49E4
:10586000904206D10878FBF7C1FF012209490A4896
:1058700009E00A4A90420AD14878FBF749FD0549F8
:1058800001220748491CBDE81040FFF7C1BF10BD09
:1058900000480040000000202007002000380140A0
:1058A000980600202DE9F8430446C06F9846164636
:1058B0000D46202802D00220BDE8F88395B18EB1B4
:1058C0000020C4F884002120E067FEF70FF9A4F857
:1058D00050608146A4F85260A0682027B0F5805F30
:1058E00002D003E00120E7E7206910B12E46002531
:1058F00010E000260EE08021204602F03DF9C0B9FC
:10590000D6B116F8010B21680885B4F85200401E84
:10591000A4F85200B4F852004B464FF00002CDF804
:1059200000800028E7D14FF04001204602F024F922
:1059300038B1E7670320BFE735F8020BC0F3080072
:10594000E1E7E7670020B7E77047FEE701688A698B
:10595000D243920701D400228A6200688169C94358
:10596000C90703D0816941F00101816170470000DE
:105970002DE9F047044600688946002681693546CE
:105980001746C9064FF0200841D51021C1612FE00C
:10599000B9F1FF3F2CD0FEF7A9F8C11B494502D849
:1059A000B9F1000F24D12068416894F8422001F435
:1059B00080418369DB431B0415D4B1F5804F12D0BD
:1059C000202A10D0416841F480414160FEF78EF8F2
:1059D000074608E0FEF78AF8C01B192803D945F0EE
:1059E0002005012604E020688069C0438006F1D4C8
:1059F00020688069C043800602D5002EC8D003E02D
:105A000016B92168C1F81C8045F0040501262168FB
:105A10008869C20505D54FF4807245F00105CA6159
:105A20000126410509D522684FF4806145F008053B
:105A3000D1610126800502D40AE0800507D52168DE
:105A40004FF4007045F00205C861012600E086B100
:105A50002046FFF77BFF54F8240B4168064A1140AB
:105A60004160206A2843206284F81D800020A077CE
:105A700020773046BDE8F08700E800FE2DE9F843C6
:105A800004461646DDE9089714489846DAB20090B5
:105A90000023204600F056F83A464946204600F0DA
:105AA000D1F8B8B9F5B2B8F1010F08D02168300AC1
:105AB00088623A464946204600F0C4F850B920684A
:105AC00085624B46002240212046009700F052F8A4
:105AD000002800D00120BDE8F883000000200080ED
